:100000000C9434000C9483000C94B3000C94E30023
:100010000C9451000C9453000C9451000C9451001A
:100020000C9451000C9451000C9451000C9451000C
:100030000C9451000C9451000C9451000C945100FC
:100040000C9451000C9451000C9451000C945100EC
:100050000C9451000C9451000C9451000C945100DC
:100060000C9451000C94510011241FBECFEFD4E02A
:10007000DEBFCDBF11E0A0E0B1E0EEEAF1E102C0E9
:1000800005900D92A230B107D9F711E0A2E0B1E0DE
:1000900001C01D92A236B107E1F70E9483080C94BB
:1000A000D5080C9400001F920F920FB60F921124E6
:1000B0002F933F938F939F93499B09C08091840016
:1000C00090918500909346018093450113C081E093
:1000D0008093510180918400909185002091450189
:1000E00030914601821B930B9093530180935201F0
:1000F000109251019F918F913F912F910F900FBEC0
:100100000F901F9018951F920F920FB60F92112407
:100110002F933F938F939F934A9B09C080918400B4
:1001200090918500909325018093240113C081E074
:100130008093510180918400909185002091240149
:1001400030912501821B930B90933B0180933A01E0
:10015000109251019F918F913F912F910F900FBE5F
:100160000F901F9018951F920F920FB60F921124A7
:100170002F933F938F939F934B9B09C08091840053
:1001800090918500909331018093300113C081E0FC
:1001900080935101809184009091850020913001DD
:1001A00030913101821B930B9093500180934F014A
:1001B000109251019F918F913F912F910F900FBEFF
:1001C0000F901F9018951F920F920FB60F92112447
:1001D0002F933F938F939F931F9B09C0809184001F
:1001E0009091850090934E0180934D0113C081E062
:1001F00080935101809184009091850020914D0160
:1002000030914E01821B930B90932701809326011E
:10021000109251019F918F913F912F910F900FBE9E
:100220000F901F9018958FE380937E0010927B00B3
:10023000089583E080937C0086EC80937A0080911F
:100240007A0086FDFCCF209178004091790080E013
:1002500094E0821B9109342F20E0821B930B909332
:100260004801809347016AE070E00E94880870931B
:1002700035016093340184E080937C0086EC8093A8
:100280007A0080917A0086FDFCCF20917800409121
:10029000790080E094E0821B9109342F20E0821BDA
:1002A000930B90934A01809349016AE070E00E94A9
:1002B0008808709337016093360185E080937C0055
:1002C00086EC80937A0080917A0086FDFCCF2091A5
:1002D00078004091790080E094E0821B9109342FEE
:1002E00020E0821B930B90934C0180934B016AE0BA
:1002F00070E00E9488087093390160933801089576
:1003000080937C0086EC80937A0080917A0086FD51
:10031000FCCF0895482F82E080937C0086EC809388
:100320007A0080917A0086FDFCCF30917800209190
:100330007900922F80E0BC01630F711D9B017093C7
:100340001C0160931B01442351F4809102019091A0
:100350000301281B390B30931C0120931B0181E002
:1003600080937C0086EC80937A0080917A0086FDF1
:10037000FCCF3091780020917900922F80E0BC0171
:10038000630F711D9B0170931E0160931D01442337
:1003900051F48091040190910501281B390B309391
:1003A0001E0120931D0110927C0086EC80937A0040
:1003B00080917A0086FDFCCF309178002091790001
:1003C000922F80E0BC01630F711D9B01709320018F
:1003D00060931F01442351F480910601909107011D
:1003E000281B390B3093200120931F0108951F9380
:1003F0000E9419011092030110920201109205014E
:1004000010920401109207011092060110E081E0A1
:100410000E948A01609102017091030180911B0189
:1004200090911C01680F791F709303016093020182
:10043000409104015091050180911D0190911E0190
:10044000480F591F50930501409304012091060164
:100450003091070180911F0190912001280F391FD1
:1004600030930701209306011F5F103281F6E5E00B
:1004700075956795EA95E1F7709303016093020122
:1004800095E0559547959A95E1F75093050140936E
:10049000040185E0359527958A95E1F730930701AA
:1004A0002093060181E0809323011F91089580919C
:1004B00051018823E1F780915201909153012091DD
:1004C0005A0130915B01821B930B95958795959509
:1004D0008795909329018093280180915101882369
:1004E000E1F780913A0190913B0120915C013091BC
:1004F0005D01821B930B95958795959587959093B4
:10050000430180934201809151018823E1F780915A
:100510004F019091500120915E0130915F01821B4B
:10052000930BA3E095958795AA95E1F790931A010F
:1005300080931901809151018823E1F78091260170
:10054000909127012091600130916101821B930BF2
:1005500090931401809313019595879595958795B0
:1005600090932B0180932A0108958091080188239C
:1005700009F4DBC0809121019091220197FF05C011
:10058000109222011092210109C08536910534F0A4
:1005900084E690E0909322018093210180912C01C8
:1005A00090912D0197FF05C010922D0110922C0102
:1005B00009C08536910534F084E690E090932D01D2
:1005C00080932C0180913E0190913F0197FF05C0DF
:1005D00010923F0110923E0109C08536910534F01A
:1005E00084E690E090933F0180933E018091320138
:1005F0009091330197FF05C01092330110923201A0
:1006000009C08536910534F084E690E0909333017B
:100610008093320180918400909185002091100197
:1006200030911101821B930B90930F0180930E0167
:10063000A89816BC6AE070E00E9488086F5F60931B
:100640000901262F332727FD309584E690E0821B91
:10065000930B90930D0180930C01A0912101B09117
:100660002201A80FB91FE0912C01F0912D01E80F94
:10067000F91F40913E0150913F01480F591F2091B1
:10068000320130913301280F391FA89816BC1FC0C2
:1006900086B58035E8F386B5805586BD109719F08C
:1006A000119709F42A98309719F0319709F429988D
:1006B0004115510521F04150504009F42898211569
:1006C000310521F02150304009F45F986F5F683C9C
:1006D000F8F2B0932201A0932101F0932D01E09351
:1006E0002C0150933F0140933E01309333012093FE
:1006F00032016093120120910001309101012150DB
:100700003040A89816BC08C086B58035E8F386B599
:10071000805586BD2150304021153105A9F78FEF56
:100720009FEF90930B0180930A01809144018823ED
:1007300079F08091840090918500909311018093CD
:10074000100181E0809308012A9A299A289A5F9AD9
:10075000089581E0809357018093580110925901C8
:1007600020EF35E030935B0120935A0130935D0117
:1007700020935C0180E694E090935F0180935E019A
:100780003093610120936001089508C000000000CB
:100790000000000000000000000081508823B1F735
:1007A00008951F93CF93DF93EC0108C010E084E617
:1007B0000E94C5031F5F1A30D1F721972097B1F728
:1007C000DF91CF911F910895EF92FF920F931F93A6
:1007D000CF93DF930E9457028091190190911A01E3
:1007E00097FF43C12091B20080911501281B809191
:1007F000160190911701820F911D9093170180931C
:1008000016018091B20080931501209144018091DE
:100810002A0190912B01222319F4CC977CF003C07C
:10082000855C9F4F5CF4809142019091430197FF5A
:1008300003C0909581959F4F4F9724F01092170118
:1008400010921601809116019091170183549F40D8
:1008500010F181E08227809344012E981092550177
:10086000109254018823A1F00E94F7011092080110
:100870002E9A82E390E090933D0180933C01909307
:100880002F0180932E01909341018093400147C234
:100890008091080140C2222309F448C080912A01B6
:1008A00090912B01845C9F4F0CF040C080914201DD
:1008B00090914301CD97D4F18091540190915501CD
:1008C000892B59F58FE69EEF909355018093540143
:1008D0000E94F7011092080186E990E00E94D1037E
:1008E00082E390E090933D0180933C0190932F012F
:1008F00080932E0190934101809340011092180142
:100900002E9889E190E00E94D1032E9A89E190E02F
:100910000E94D10381E0809318018091540190914D
:1009200055010196909355018093540180914401A3
:10093000882309F44DC080912A0190912B01845C99
:100940009F4F0CF045C08091420190914301845C1F
:100950009F4FF4F58091540190915501892B79F5C1
:100960008FE69EEF90935501809354010E94F7010A
:100970001092080184E690E00E94D10386E490E0A2
:1009800090933D0180933C0190932F0180932E0121
:1009900090934101809340011092180110E00BC028
:1009A0002E9889E190E00E94D1032E9A89E190E08F
:1009B0000E94D1031F5F123098F3109318018091A9
:1009C00054019091550101969093550180935401E3
:1009D00080914401882309F448C080912A019091B4
:1009E0002B01CD970CF441C08091420190914301BD
:1009F000845C9F4FD4F58091540190915501892BCF
:100A000059F58FE69EEF90935501809354010E9413
:100A1000F7011092080182E390E090933D018093EA
:100A20003C0190932F0180932E018AE590E09093F2
:100A300041018093400110E00BC02E9889E190E0C5
:100A40000E94D1032E9A89E190E00E94D1031F5F9A
:100A5000143098F31093180180915401909155012E
:100A60000196909355018093540180E00E948A0181
:100A70008091190190911A018B35910534F08AE526
:100A800090E090931A0180931901C0911901D091BF
:100A90001A012091340130913501C901880F991F45
:100AA000880F991F820F931F20911B0130911C0109
:100AB000AC01429FC001439F900D529F900D1124A5
:100AC00068EC70E00E949C08FB0170931C0160932D
:100AD0001B0120913C0130913D01809128019091B2
:100AE0002901AC01249FC001259F900D349F900DDA
:100AF000112464E670E00E949C089B0180915701DC
:100B0000882339F4E60FF71FF0932901E0932801B9
:100B100006C02E1B3F0B3093290120932801E09043
:100B20002801F09029012091360130913701C90147
:100B3000880F991F880F991F820F931F20911D0105
:100B400030911E01AC01429FC001439F900D529F06
:100B5000900D112468EC70E00E949C08FB017093DA
:100B60001E0160931D0120912E0130912F01809173
:100B7000420190914301AC01249FC001259F900D3B
:100B8000349F900D112464E670E00E949C089B0144
:100B900080915801882339F4E60FF71FF093430141
:100BA000E093420106C02E1B3F0B3093430120937C
:100BB000420100914201109143012091380130918E
:100BC0003901C901880F991F820F931F880F991F40
:100BD00020911F0130912001AC01429FC001439F31
:100BE000900D529F900D112468EC70E00E949C08BB
:100BF000FB017093200160931F012091400130910F
:100C0000410180912A0190912B01AC01249FC001E8
:100C1000259F900D349F900D112464E670E00E9492
:100C20009C089B0180915901882339F4E60FF71F36
:100C3000F0932B01E0932A0106C02E1B3F0B30934B
:100C40002B0120932A0180912A0190912B01980178
:100C50002C0F3D1F281B390B3093220120932101BB
:100C6000A7014C0F5D1F480F591F50932D01409352
:100C70002C01BC016C0F7D1F6E197F0970933F0121
:100C800060933E01FE01E01BF10BE81BF90BF093B2
:100C90003301E09332012A30310534F48AE090E0E8
:100CA00090932201809321014A30510534F48AE067
:100CB00090E090932D0180932C016A30710534F4FB
:100CC0008AE090E090933F0180933E013A9734F49C
:100CD0008AE090E090933301809332011C161D0648
:100CE00044F480914401882321F0809123018823DA
:100CF00081F4109222011092210110922D01109284
:100D00002C0110923F0110923E011092330110927B
:100D1000320180914401882311F00E94B502DF91D5
:100D2000CF911F910F91FF90EF9008951F93CF9354
:100D3000DF93EC01162F0E94BF08811721F0CE012E
:100D4000612F0E94C708DF91CF911F910895CF9224
:100D5000DF92EF92FF920F931F93CF93DF938C015B
:100D60006B017A01C0E0D0E009C0C6018C0F9D1F65
:100D7000F80161918F010E9496062196CE15DF053C
:100D8000A0F3DF91CF911F910F91FF90EF90DF9033
:100D9000CF900895F89486E591E060E070E04CE033
:100DA00050E00E94A7067894089580E090E00E94A9
:100DB000BF08873441F087E4809356010E94A9035D
:100DC0000E94CA06089586E591E060E070E04CE07C
:100DD00050E00E94AF080895CF92DF92EF92FF9209
:100DE0000F931F93CF93DF9385B7806185BF519891
:100DF000529853982798389839983A983D983C9843
:100E00003B98229A219A209A579A269A2E98499886
:100E10004A984B981F988091680081608093680081
:100E20008091680084608093680080916B00806886
:100E300080936B0080916D00826080936D0085E0EF
:100E40008093690083E08DBB8CB383608CBB14BC42
:100E500081E085BD10926E001092800082E0809348
:100E600081001092B00087E08093B1001092700072
:100E700017BA1092B2000E94D5068FE380937E00CD
:100E800010927B00109223011092440110925101A4
:100E900080915A0190915B0190935301809352018C
:100EA00080915C0190915D0190933B0180933A01A8
:100EB00080915E0190915F019093500180934F016A
:100EC00080916001909161019093270180932601A8
:100ED0002E9A86E990E00E94D1032E9878948CEDAA
:100EE00095E00E94D1030E9419010E94190180918E
:100EF000490190914A01C39708F06DC08091470164
:100F000090914801C39748F480914B0190914C0116
:100F1000C39718F40E94A903FFCF10925B011092AF
:100F20005A0110925D0110925C01109261011092C1
:100F30006001C0E0D0E02E9A89E190E00E94D103E8
:100F40002E9889E190E00E94D1032196C330D1050B
:100F500091F786EA9EE00E94D103EE24FF24CC2480
:100F6000DD24C0E0D0E000E010E00E945702809154
:100F7000280190912901080F191F80914201909139
:100F80004301E80EF91E80912A0190912B01C80EB1
:100F9000D91E84E690E00E94D1032196C430D10589
:100FA00021F710935B0100935A01F0925D01E092EA
:100FB0005C0180E694E090935F0180935E01D092A3
:100FC0006101C09260010E94CA062E9A86E990E0F3
:100FD0000E94D1032E988091470190914801C397B8
:100FE00008F050C0C0E0D0E02E9A89E190E00E9465
:100FF000D1032E9889E190E00E94D1032196C3305D
:10100000D10591F711E00E9457028091280190913B
:101010002901825E9F4F2CF4109257010E94CA064C
:101020002E9A80912801909129014F971CF01093DE
:1010300057011FC080914201909143012FEF823EE2
:1010400092071CF41092580114C04F971CF0109393
:1010500058010FC080912A0190912B012FEF823E01
:1010600092071CF41092590104C04F972CF0109372
:1010700059010E94CA062E9A82E390E00E94D10391
:101080002E98C1CF80914B0190914C01C39790F560
:10109000C0E0D0E02E9A89E190E00E94D1032E9822
:1010A00089E190E00E94D1032196C330D10591F7E8
:1010B00081E08093440188E097E090930101809360
:1010C00000010E9457028091190190911A0190939A
:1010D00022018093210190932D0180932C01909304
:1010E0003F0180933E0190933301809332010E942F
:1010F000B502E7CFDF91CF911F910F91FF90EF9055
:10110000DF90CF9008950E94EC060E94E403FDCF8B
:10111000AA1BBB1B51E107C0AA1FBB1FA617B7071D
:1011200010F0A61BB70B881F991F5A95A9F7809539
:101130009095BC01CD01089597FB092E07260AD092
:1011400077FD04D0E5DF06D000201AF47095619594
:101150007F4F0895F6F7909581959F4F0895DC0194
:10116000CB01FC01F999FECF06C0F2BDE1BDF89AB2
:10117000319600B40D9241505040B8F70895F99956
:10118000FECF92BD81BDF89A992780B50895262F8C
:10119000F999FECF1FBA92BD81BD20BD0FB6F8945C
:0E11A000FA9AF99A0FBE01960895F894FFCFBF
:0211AE008500BA
:00000001FF
